:10000000E1C0E8C0E7C0E6C0E5C0E4C0E3C0E2C0CC
:10001000E1C0E0C0DFC0000000000000002F0000D1
:100020000007000700147F147F14242A7F2A12621D
:100030006408132336495522500005030000001CB4
:100040002241000041221C0014083E081408083E0A
:1000500008080000A06000080808080800606000A8
:100060000020100804023E5149453E00427F4000F6
:1000700042615149462141454B311814127F1027E6
:10008000454545393C4A494930017109050336491E
:10009000494936064949291E0036360000005636C1
:1000A00000000814224100141414141400412214F6
:1000B000080201510906324959513E7C1211127C45
:1000C0007F494949363E414141227F4141221C7FBF
:1000D000494949417F090909013E4149497A7F0857
:1000E00008087F00417F41002040413F017F081404
:1000F00022417F404040407F020C027F7F04081075
:100100007F3E4141413E7F090909063E4151215E42
:100110007F09192946464949493101017F01013FBB
:100120004040403F1F2040201F3F4038403F631465
:1001300008146307087008076151494543007F416F
:10014000410002040810200041417F000402010226
:10015000044040404040A81F2200032000DA028DE6
:1001600014AFA1C8444F4720202D2028303132330E
:1001700034353637383929004A554D5053204F56BB
:10018000455220544845204C415A59005448452076
:10019000515549434B2042524F574E20464F58002D
:1001A000415454494E59313020474F4553204F4C0C
:1001B000454420210048454C4C4F20574F524C4459
:1001C0002021000011271FBFCFE5D0E0DEBFCDBF4B
:1001D0007FD0F1C015CF089A0A980898089548E092
:1001E000089A87FD08980A98880F0A9A4150C1F723
:1001F00008980A9800000A9A0895089A0A9A88E7C7
:10020000EECFCF93DF93C82FD62FF7DF80E0E7DF65
:100210008C2F8F70E4DF8C2F82958F708061DFDFF1
:100220008D2F8770806BDBDFDF91CF91D4CF3F9331
:10023000CF93DF93082F000F990B8052910BC82F9B
:10024000D92FCC0FDD1FCC0FDD1FC80FD91F80E0C9
:10025000C6DFCA5EDF4B35E08991C1DF3150E1F77F
:10026000DF91CF913F9108952F933F93CF93DF93E9
:10027000282F392FC2DF80E4B2DFC22FD32F89911C
:10028000882311F0D4DFFBCFDF91CF913F912F91E5
:10029000A2CFCF93C82FB1DF80E0A1DF83ED9FDF36
:1002A0008C2F9DDFCF9197CFCF93DF9360E080E0DD
:1002B000A8DFA3DF80E493DFC0E0D2E080E08FDF3F
:1002C000C150D10BD9F787DF80E0DF91CF91E1CF2B
:1002D00048ED4CBF16BF41B14A7F41B942B14A7F98
:1002E00042B98BDF80E07BDFC6E5D1E4899177DF1F
:1002F00041E4C236D407D1F76EDFD6DF60E084E197
:1003000080DF85EB91E4B0DF5FEF69E648E15150B3
:1003100060404040E1F700C0000062E085E071DF2E
:1003200080EA91E4A1DF5FEF67EA41E65150604067
:100330004040E1F700C00000B7DF8CE891E494DFB3
:1003400061E080E05EDF88E791E48EDF62E080E0DC
:1003500058DF84E691E488DF5FEF67EA41E65150B9
:1003600060404040E1F700C0000060E080E049DF0D
:1003700044DF80E434DFC0E28C2F59DFCF5FC0362A
:10038000D9F729DF5FEF6DE349E451506040404009
:10039000E1F700C00000C0E08C2F7BDF5FEF60E77B
:1003A00042E0515060404040E1F700C00000CF5FA4
:0A03B000C03291F7A2CFF894FFCFFE
:00000001FF
