:10000000E1C0E8C0E7C0E6C0E5C0E4C0E3C0E2C0CC
:10001000E1C0E0C0DFC0000000000000002F0000D1
:100020000007000700147F147F14242A7F2A12621D
:100030006408132336495522500005030000001CB4
:100040002241000041221C0014083E081408083E0A
:1000500008080000A06000080808080800606000A8
:100060000020100804023E5149453E00427F4000F6
:1000700042615149462141454B311814127F1027E6
:10008000454545393C4A494930017109050336491E
:10009000494936064949291E0036360000005636C1
:1000A00000000814224100141414141400412214F6
:1000B000080201510906324959513E7C1211127C45
:1000C0007F494949363E414141227F4141221C7FBF
:1000D000494949417F090909013E4149497A7F0857
:1000E00008087F00417F41002040413F017F081404
:1000F00022417F404040407F020C027F7F04081075
:100100007F3E4141413E7F090909063E4151215E42
:100110007F09192946464949493101017F01013FBB
:100120004040403F1F2040201F3F4038403F631465
:1001300008146307087008076151494543007F416F
:10014000410002040810200041417F000402010226
:10015000044040404040A81F2200032000DA028DE6
:1001600014AFA1C8444F4720202D2028303132330E
:1001700034353637383929004A554D5053204F56BB
:10018000455220544845204C415A59005448452076
:10019000515549434B2042524F574E20464F58002D
:1001A000415454494E59313020474F4553204F4C0C
:1001B000454420210048454C4C4F20574F524C4459
:1001C0002021000011271FBFCFE5D0E0DEBFCDBF4B
:1001D0008AD000C115CF089A0A980898089548E077
:1001E000089A87FD08980A98880F0A9A4150C1F723
:1001F00008980A9800000A9A0895089A0A9A88E7C7
:10020000EECFCF93DF93C82FD62FF7DF80E0E7DF65
:100210008C2F8F70E4DF8C2F82958F708061DFDFF1
:100220008D2F8770806BDBDFDF91CF91D4CF2F9341
:100230003F93CF93DF93082F000F990B8052910BC0
:10024000282F392F220F331F220F331F280F391F5A
:1002500080E0C5DFC0E0D0E08C2F9D2F820F931F80
:10026000E82FF92FEA5EFF478081B9DFCF5FDF4FCC
:10027000C530D10789F7DF91CF913F912F91089534
:10028000CF93DF93C82FD92FB8DF80E4A8DFEC2FFE
:10029000FD2FF05C8081882321F0C9DFCF5FDF4F25
:1002A000F6CFDF91CF9197CFCF93C82FA6DF80E015
:1002B00096DF83ED94DF8C2F92DFCF918CCFCF939D
:1002C000DF9360E080E09DDF98DF80E488DFC0E0BE
:1002D000D2E080E084DFC150D10BD9F77CDF80E031
:1002E000DF91CF91E1CF48ED4CBF16BF41B14A7FBE
:1002F00041B942B14A7F42B980DF80E070DFC6E594
:10030000D1E8EC2FFD2F80816ADFCF5FDF4FF1E86E
:10031000C236DF07B1F75FDFD2DF60E084E171DF73
:1003200085EB91E4ADDF4FEF59E668E14150504075
:100330006040E1F700C0000062E085E062DF80EA33
:1003400091E49EDFEFEFF7EA41E6E150F0404040F4
:10035000E1F700C00000B3DF8CE891E491DF61E0D9
:1003600080E04FDF88E791E48BDF62E080E049DFE7
:1003700084E691E485DF5FEF67EAE1E65150604093
:10038000E040E1F700C0000060E080E03ADF35DFE8
:1003900080E425DFC0E28C2F4ADFCF5FC036D9F77B
:1003A0001ADFFFEF4DE359E4F15040405040E1F7D0
:1003B00000C00000C0E08C2F77DF6FEFE0E7F2E0D5
:1003C0006150E040F040E1F700C00000CF5FC03274
:0803D00091F7A2CFF894FFCFD2
:00000001FF
