:10000000C3C0D0C0CFC0CEC0CDC0CCC0CBC0CAC092
:10001000C9C0C8C0A81F2200032001DA028D14AF96
:10002000A1C8CBAA998877665544333222111100B2
:100030000000000000000000002F00000007000783
:1000400000147F147F14242A7F2A12231308646269
:1000500036495522500005030000001C22410000D3
:1000600041221C0014083E081408083E080800003D
:10007000A060000808080808006060000020100860
:1000800004023E5149453E00427F400042615149D1
:10009000462141454B311814127F102745454539FB
:1000A0003C4A494930017109050336494949360638
:1000B0004949291E00363600000056360000081453
:1000C0002241001414141414004122140802015196
:1000D0000906324959513E7C1211127C7F49494927
:1000E000363E414141227F4141221C7F49494941DD
:1000F0007F090909013E4149497A7F0808087F00C4
:10010000417F41002040413F017F081422417F4050
:100110004040407F020C027F7F0408107F3E414137
:10012000413E7F090909063E4151215E7F09192997
:1001300046464949493101017F01013F4040403F66
:100140001F2040201F3F4038403F631408146307BE
:10015000087008076151494543007F41410002048E
:100160000810200041417F00040201020440404089
:100170004040415454494E593133204C4F56455319
:10018000204F4C454420210011241FBECFE9CDBF94
:1001900020E0A0E6B0E001C01D92A136B207E1F771
:1001A00022D0B2C02DCFB89ABA98B898089598E0E6
:1001B000B89A87FDB898BA98880FBA9A9150C1F743
:1001C000B898BA980000BA9A0895B89ABA9A88E787
:1001D000EECFFBDF80E0EBDF80E0E9DF80E1E7DF0F
:1001E00080EBE5DFE0CFF1DF80E0E1DFC4E1D0E0EC
:1001F000FE018491DCDF2196F0E0C032DF07C1F719
:10020000D2DFE7DFE2DF80E4D2DFC0E0D2E080E0EF
:10021000CEDF2197E1F7C7DF62E7C62E61E0D62E79
:100220007FE1B72EE7E1AE2ED4DFCFDF80E4BFDF82
:10023000F601E49002E711E0EE2009F45EC00E2C16
:10024000000CFF08F0E2EF1AF108C701880F991FB0
:10025000880F991FE80EF91E80E0A9DF80E0A7DF74
:1002600080E0A5DF80E0A3DF809160008F5F809356
:100270006000C0E0D0E0F701EC0FFD1FEE5CFF4F27
:10028000E4914E2E512C612C712C20916000322F64
:100290003F7125FF03C08B2D831B382F832F90E0E8
:1002A00095958795FC01EE5DFF4F849130FF829517
:1002B0008F7026FF03C09A2D981B892F04C0440C11
:1002C000551C661C771C8A95D2F72F5F209360001F
:1002D00094E0992E842D6BDF452C562C672C7724C7
:1002E0009A949110F7CF2196C530D10509F0C3CF6C
:1002F0000F5F1F4FF801E4909FCF55DF80916000A2
:0C03000081508093600090CFF894FFCFF4
:00000001FF
