:10000000FCC009C108C107C106C105C104C103C1C3
:1000100002C101C1A81F2200032001DA028D14AF22
:10002000A1C8CBAA998877665544333222111100B2
:100030000000000000000000002F00000007000783
:1000400000147F147F14242A7F2A12231308646269
:1000500036495522500005030000001C22410000D3
:1000600041221C0014083E081408083E080800003D
:10007000A060000808080808006060000020100860
:1000800004023E5149453E00427F400042615149D1
:10009000462141454B311814127F102745454539FB
:1000A0003C4A494930017109050336494949360638
:1000B0004949291E00363600000056360000081453
:1000C0002241001414141414004122140802015196
:1000D0000906324959513E7C1211127C7F49494927
:1000E000363E414141227F4141221C7F49494941DD
:1000F0007F090909013E4149497A7F0808087F00C4
:10010000417F41002040413F017F081422417F4050
:100110004040407F020C027F7F0408107F3E414137
:10012000413E7F090909063E4151215E7F09192997
:1001300046464949493101017F01013F4040403F66
:100140001F2040201F3F4038403F631408146307BE
:10015000087008076151494543007F41410002048E
:100160000810200041417F00040201020440404089
:10017000404020202020202020202020202020203F
:1001800020202020202020415454494E5931332032
:100190004C4F564553204F4C4544202D20414E4452
:1001A0002053494E452057415645532C20544F4F1C
:1001B0002120464F52204D4F524520494E464F5226
:1001C0004D4154494F4E20564953495420474954B4
:1001D0004855422E434F4D2F574147494D494E41B7
:1001E000544F522E202020382D42495420504F5732
:1001F00045522052554C455A210011241FBECFE9CB
:10020000CDBF20E0A0E6B0E001C01D92A436B20749
:10021000E1F718D0D1C0F4CEB89ABA98B89808953A
:1002200098E0B89A87FDB898BA98880FBA9A915012
:10023000C1F7B898BA980000BA9A0895B89ABA9ACD
:1002400088E7EECFFBDF80E0EBDFC4E1D0E0FE012A
:100250008491E6DF2196F0E0C032DF07C1F7DCDFF2
:1002600017E10FE110926000E9DF80E0D9DF80E064
:10027000D7DF80E1D5DF80EBD3DFCEDF8091630075
:100280008F5F863018F4809363000CC01092630077
:10029000809162008F5F873818F48093620002C0FB
:1002A00010926200C0916200C9DF80E4B9DFD6E13C
:1002B000EC2FF0E0EE58FE4FE4910E2E000CFF0BF9
:1002C000B0974F01880C991C880C991C8E0E9F1EAC
:1002D000E12CF0906000F7FE06C0CF5FC73808F44D
:1002E00061C0C0E05FC0EE2009F43FC0C4010196C8
:1002F000F11006C020916300E21610F44C014DC0CD
:100300006C01F401EE5CFF4FE4918E2E912CA12C38
:10031000B12C30916100232F2F7135FF03C0802F46
:10032000821B282F822F90E095958795FC01EE5D2A
:10033000FF4F849120FF82958F7036FF03C0912F6D
:10034000981B892F04C0880C991CAA1CBB1C8A9579
:10035000D2F794E0792E882D63DF892C9A2CAB2C70
:10036000BB247A947110F7CF0FC0F11004C08091B4
:100370006300811112C080E053DF80E051DF80E034
:100380004FDF80E04DDF6401F394F09260008091D4
:1003900061008F5F809361004601E394E6E0EE1216
:1003A00098CF9BCFD15009F083CF36DF8091610089
:0C03B00082508093610056CFF894FFCF7C
:00000001FF
