:1000000031C038C037C036C035C034C033C032C04C
:1000100031C030C02FC0A81F2200032001DA028D9A
:1000200014AF0010B0A1C87F417F00007F79494F15
:1000300041497F0F087E4F49797F497903017F7FCE
:10004000497F4F497F7F097F7F48787F41637848A8
:100050007F7F49417F0901006000003600080808E1
:100060000000000011271FBFCFE5D0E0DEBFCDBFED
:1000700018D070C1C5CF089A0A980898089548E02A
:10008000089A87FD08980A98880F0A9A4150C1F784
:1000900008980A9800000A9A0895089A0A9A88E728
:1000A000EECFCF93DF93CDB7DEB7C951D10B0FB7EA
:1000B000F894DEBF0FBFCDBF48ED4CBF41E046BF57
:1000C00041B14A7F41B942B14A7F42B9E6DF80E09F
:1000D000D6DF26E130E4E22FF32F81912E2F3F2F40
:1000E000CEDFF0E425323F07B1F7C5DFCC5EDF4F4E
:1000F0001883C451D040CF5EDF4F1883C151D04028
:1001000020E0CBDF80E4BBDF4C2F5D2F4F5F5F4FE4
:10011000CA5EDF4F58834A93C551D0406C2F7D2F64
:10012000675F7F4FC25FDF4F78836A93CD50D040C7
:10013000CB5EDF4FE991F881C651D0404191CA5E54
:10014000DF4FF883EA93C551D040542F550F540F19
:10015000C75EDF4F5883C951D04038E080E08FDF61
:100160003150E1F7CD5EDF4F18831A93C251D04072
:10017000CE5EDF4F6881C251D040C75EDF4FE8815D
:10018000C951D040E60FF0E0E95DFF4B70814C2F84
:100190005D2F435F5F4FC05FDF4F58834A93CF505F
:1001A000D040EC2FFD2FE75FFF4F472F4270440FE9
:1001B000440F440F572F5170452B542F550F452B8B
:1001C000542F550F550F452B419376957695C15F6A
:1001D000DF4F49915881C051D0404E175F0729F732
:1001E000613011F034E001C036E0315040F16C2F45
:1001F0007D2F675F7F4FC85EDF4F78836A93C7515B
:10020000D040C95EDF4FE991F881C851D04081915B
:10021000C85EDF4FF883EA93C751D04030DFC15F3B
:10022000DF4F49915881C051D040C95EDF4F69917D
:100230007881C851D0404617570719F7D6CFCE5E00
:10024000DF4FE991F881C351D040EF5FFF4FCD5EA2
:10025000DF4FF883EA93C251D040E330F10709F051
:1002600087CFCB5EDF4F49915881C651D040C35FE5
:10027000DF4F69917881CE50D0404617570709F07B
:1002800057CFF9DE2F5FC1F4CF5EDF4F7881C151C8
:10029000D0407F5FCF5EDF4F7883C151D040711374
:1002A0000BC0CC5EDF4FE881C451D040EF5FCC5E25
:1002B000DF4FE883C451D040422F4F70C85FDF4FFB
:1002C0004883C850D040422F42954F70C95FDF4FDE
:1002D0004883C750D040CF5EDF4F4881C151D040E6
:1002E0004F70CB5FDF4F4883C550D040CF5EDF4FAC
:1002F0004881C151D04042954F70CC5FDF4F488359
:10030000C450D040CC5EDF4F4881C451D0404F70C4
:10031000CE5FDF4F4883C250D040CC5EDF4F488174
:10032000C451D04042954F70CF5FDF4F4883C150DA
:10033000D04040E1CA5FDF4F4883C650D04025FD22
:1003400007C043E1CD5FDF4F4883C350D040D9CED3
:0803500041E1F8CFF894FFCF62
:00000001FF
